:020000040800F2
:1000000078060020D90200083515000831150008CF
:1000100033150008E303000825170008EB02000869
:10002000000000000000000000000000651600084D
:10003000E503000800000000B91500086716000875
:10004000F5020008F5020008F5020008F5020008B4
:10005000F5020008F5020008F5020008F5020008A4
:10006000F5020008F5020008F5020008F502000894
:10007000F5020008F5020008F5020008F502000884
:10008000F5020008F5020008F5020008F502000874
:10009000F5020008F5020008F5020008F502000864
:1000A000F5020008F5020008F5020008F502000854
:1000B000F5020008F5020008F5020008F502000844
:1000C000F5020008F5020008F5020008F502000834
:1000D000F5020008F5020008F5020008F502000824
:1000E000F5020008F5020008F5020008F502000814
:1000F000F5020008F5020008F5020008F502000804
:10010000F5020008F5020008F5020008F5020008F3
:10011000F5020008F5020008F5020008F5020008E3
:10012000F5020008F5020008F5020008F5020008D3
:10013000F5020008F5020008F5020008F5020008C3
:10014000F5020008F5020008F5020008F5020008B3
:10015000F5020008F5020008F5020008F5020008A3
:10016000F5020008F5020008F5020008F502000893
:10017000F5020008F5020008F5020008F502000883
:10018000F5020008F5020008F5020008F502000873
:10019000F5020008F5020008F5020008F502000863
:1001A000F5020008F5020008F5020008F502000853
:1001B000F5020008F5020008F5020008F502000843
:1001C000F5020008F5020008F5020008F502000833
:1001D000F5020008F5020008F5020008F502000823
:1001E000F5020008F5020008F5020008F502000813
:1001F000F5020008F5020008F5020008F502000803
:10020000F5020008F5020008F5020008F5020008F2
:10021000F5020008F5020008F5020008F5020008E2
:10022000F5020008F5020008F5020008F5020008D2
:10023000F5020008F502000800F002F800F03CF8B2
:100240000AA090E8000C82448344AAF10107DA4531
:1002500001D100F031F8AFF2090EBAE80F0013F047
:10026000010F18BFFB1A43F00103184724160000C2
:1002700044160000103A24BF78C878C1FAD8520753
:1002800024BF30C830C144BF04680C607047000010
:100290000023002400250026103A28BF78C1FBD88F
:1002A000520728BF30C148BF0B6070471FB501F02F
:1002B00079FA1FBD10B510BD00F05AF81146FFF7CE
:1002C000F5FF01F031FA00F078F803B4FFF7F2FF20
:1002D00003BC00F07FF800000A4880470A48004746
:1002E000FEE7FEE7FEE7FEE7FEE7FEE7FEE7FEE7E6
:1002F000FEE7FEE7FEE7000004480549054A064B15
:1003000070470000DD160008390200087800002060
:100310007806002078020020780200204FF00002CA
:1003200000B5134694469646203922BFA0E80C50EB
:10033000A0E80C50B1F12001BFF4F7AF090728BFC6
:10034000A0E80C5048BF0CC05DF804EB890028BF42
:1003500040F8042B08BF704748BF20F8022B11F06B
:10036000804F18BF00F8012B7047704770477047E7
:10037000754600F02BF8AE4605006946534620F05E
:100380000700854618B020B5FFF7B6FFBDE820404E
:100390004FF000064FF000074FF000084FF0000B41
:1003A000AC46ACE8C009ACE8C009ACE8C009ACE8B0
:1003B000C00921F007018D46704710B50446AFF320
:1003C00000802046BDE81040FFF77FBF004870471F
:1003D0001000002001491820ABBEFEE726000200F5
:1003E0007047FEE7704700002DE9FC4F7A4A4FF056
:1003F000000C7A4D01234FF0000E4FF0000900274A
:10040000019002EA902200920C6834FA07F208BFC9
:10041000BDE8FC8F03FA07F214EA020800F0D4806A
:10042000019BAB4227D0D1F804A04AF01002122A57
:1004300051D10CF01C020F2303FA02F46FF00303F6
:1004400003EA5705019B1D442E6A26EA04040E693F
:1004500006F00F0606FA02F222432A62032204681B
:10046000D1F804A002FA0EF224EA02020AF0030410
:1004700004FA0EF439E028681C2390434A6802F01D
:100480000102BA401043574A286052F809004A4412
:10049000D2F804B06FF0030202EA5B0203EA8B05B4
:1004A0000F23024403FA05F60B23146A03FA05F539
:1004B0000323B4432C4314624FEA4B0203FA02F4C1
:1004C0000568022325EA040403FA02F222430260CB
:1004D000D1F804A00CE003230AF00302056803FA34
:1004E0000EF402FA0EF225EA04042243BB4602602F
:1004F0000123BAF1120F22D803FA0AF212F0061FF2
:1005000018D0CA684FEA4B04866802FA04F5032241
:10051000A2409643354303FA0BF685604FEA1A155D
:10052000436805FA0BF5B3432B43BAF1030F43605D
:1005300009D147E0BAF1030F01D1284D44E04FEA59
:100540004B040322A240D243C3681A408B68A340E5
:100550001A43C2605FEACA0234D527F00304204E72
:1005600009F018020F2334449340256E25EA030353
:10057000009D05FA02F21A43226632684C6842EA8C
:100580000803E50258BF22EA08033360A502726837
:1005900042EA080358BF22EA08037360A503D6F8AD
:1005A000842042EA080358BF22EA0803C6F88430D0
:1005B000E403D6F8802042EA080358BF22EA080381
:1005C000C6F88030054D01230CF1040C0EF1020E2B
:1005D00009F10809013717E77F7F2F000000024665
:1005E00000200246D01700081823002A08BF28233D
:1005F000C150704705480068704700BF374803493D
:1006000000780A6810440860704700BF700000203E
:1006100080B51048016841F480710160032000F04A
:1006200097F800F05DFA0C490C4A096801F00F01D7
:10063000515CC8406B490860042000F02BFF00208B
:1006400000F00EF808B1012080BD00F04BF800204A
:1006500080BD00BF00200240200C0246BE170008EB
:1006600070B51E4E04463078C8B11D490968490767
:100670000AD400F045FF02281DD0012823D050BB2A
:1006800030784FF4FA5101E04FF47A71B1FBF0F099
:1006900054490968B1FBF0F000F022FF08B10125D0
:1006A00007E04FF0FF3021460022002500F02AF835
:1006B0007460284670BD30784FF47A71B1FBF0F069
:1006C0004FF40041E6E730784FF47A71B1FBF0F077
:1006D0004FF4FA41DEE70020DEE700BF0000002013
:1006E00010E000E081B00648016841F004010160BB
:1006F000006800F004000090009801B000F07AB8A3
:10070000940C0246F0B5184B4FF0FF361C68C4F34A
:100710000224E51E84F0070438BF002506FA05F719
:10072000BA43042C28BF042406FA04F4A14300F0C1
:100730000F04A940043C1143044A23440901024424
:10074000002848BF03F10C021170F0BD00E400E086
:1007500005494FF6FF030A681A4060F30A2203486E
:1007600010430860704700BF0CED00E00000FA0580
:1007700070B51B490A6B02F44032824207D1B0F1D6
:10078000011F22BF086840F48020086024E00A6846
:1007900022F4E0220243B0F5803FD04888BF42F403
:1007A00080220A6044F6206200230068B0FBF2F069
:1007B000421C1446013A0E6843F10005360401D488
:1007C000002DF6D154B10230421E0B6B1B0402D433
:1007D00001281046F8D10AB1002070BD032070BD79
:1007E0000C08024608000020014800F0C6BE00BF09
:1007F0002C0802460248016841F000510160704730
:10080000100802460248006800F44030704700BFFC
:100810003C0802462DE9F84F002800F000810D4603
:10082000A1490446086800F00F00A8420AD20868EF
:1008300020F00F0028430860086800F00F00A8426D
:1008400040F0ED8020688A46A24BC1060AD5616956
:100850005A6802F07002914281BF5A6822F0700219
:100860001143596001070CD51968702202EA111270
:100870002169914205D91A6822F4E06242EA011125
:10088000196041070AD5E1681A6802F070029142C6
:1008900081BF1A6822F070021143196081070AD5DE
:1008A000A1681A6802F00F02914281BF1A6822F013
:1008B0000F02114319609946C00767D1206881076C
:1008C0000DD5A168D9F8002002F00F02914206D29E
:1008D000D9F8002022F00F021143C9F80010DAF80D
:1008E000001001F00F01A9420DD9DAF8001021F033
:1008F0000F012943CAF80010DAF8001001F00F01C7
:10090000A94240F08C8041070DD5E168D9F800205C
:1009100002F07002914206D2D9F8002022F0700253
:100920001143C9F8001001070FD5D9F80010702243
:1009300002EA11122169914207D2D9F8002022F46B
:10094000E06242EA0111C9F80010C0060DD56069E5
:10095000D9F8041001F07001884206D2D9F80410C9
:1009600021F070010843C9F8040000F0B9F8D9F883
:100970000010594A01F00F01515CC8405749086006
:100980004C480068BDE8F84FFFF76ABE6068474F03
:10099000C0B302283BD003283ED1D9F8740010F030
:1009A00004080CD1D9F87400494640F00400C9F895
:1009B0007400D9F8740000F0040000900098FFF76C
:1009C00019FE06463A488346385840030ED4B8F11B
:1009D000000F06D1D9F87400494620F00400C9F888
:1009E0007400386880011AD560681BE0584657F8D3
:1009F0000B004004EBD4FFF7FDFD811B032002290F
:100A0000F4D937E03868400709D500200AE0386893
:100A1000800304D5022005E03968490502D401208D
:100A2000BDE8F88FF96921F003010843F861FFF789
:100A3000E1FD0646606841F28838032822D002288A
:100A40002CD058B9F86910F00C0F3FF437AFFFF70E
:100A5000D1FD811B03204145F4D90BE0F86900F07A
:100A60000C0004283FF42AAFFFF7C4FD811B0320CC
:100A70004145F3D9BDE8F88FFFF7BCFD811B03208A
:100A80004145F7D8F86900F00C000C28F4D115E7BF
:100A9000FFF7B0FD811B03204145EBD8F86900F05A
:100AA0000C000828F4D109E700200240000C02469F
:100AB0000CFCFFFF0400002080B500F011F8054990
:100AC000054A096801F00F01515CC84003490860FC
:100AD00080BD00BF200C0246BE17000808000020A1
:100AE00035494A69086A12F00C0211D00C2A04BF79
:100AF00000F0030001280BD048699FED300A00F098
:100B00000C032F48042B17D0082A18BF002013E02D
:100B100008682C4B000247BF0868000FD1F8EC00B2
:100B2000C0F3033053F82030002A00EE103A184684
:100B300018BF0020B8EE400A0C2A3BD1086A9FED8E
:100B4000221A9FED223A800758BFB0EE401A086A79
:100B5000C0F30320013000EE100A086A0A6BC006D9
:100B6000D208B8EE400A02EAE07081EE000A6FF3A4
:100B70005F3001EE100AC86A6FF35F2002EE100AC0
:100B8000B8EE411AC86AC0F30660B8EE422A0130D6
:100B900001EE032AB7EE001A32EE011A20EE010A26
:100BA00001EE100AB8EE411A80EE010ABCEEC00A4E
:100BB00010EE100A704700BF080C0246000000004B
:100BC0000024F400501800080024744B0000003981
:100BD0002DE9FE43002800F03983E3490446C86844
:100BE000894600F00C07886900F003082078C006E9
:100BF0001FD42078C00761D0082F5BD00C2F08BF0E
:100C0000B8F1030F56D06068D84EB0F5803F00F0C1
:100C10009A82B0F5A81F00F08E82B0F5A02F40F0A8
:100C2000A482306840F480203060306820F4801066
:100C300088E2D7B10C2F08BFB8F1010F15D0CB4E09
:100C40003068E169002900F0808140F0010000F087
:100C5000A1FC05463068400700F1B281FFF7CAFCED
:100C600000F069FCF6D9BDE8FE83E069002800F0D9
:100C7000ED82BE4D606AA96809024FBFA968494666
:100C8000D9F8E410090401F07041884240F23B8138
:100C9000002F00F01A82A86840F40000A860606A83
:100CA00000F070FCC0F0FF81206AE96821F01F01AC
:100CB0000843E4E26068002800F0C88220788007DA
:100CC00028D5042F18D00C2F08BFB8F1020F13D06D
:100CD000A64E3068E168002900F01E8240F4807062
:100CE00000F058FC05463068400509D4FFF782FC47
:100CF00000F021FCF7D9B6E7E068002800F0A682F2
:100D00002069D9F800104A4621F4F81141EA004060
:100D1000C9F800002078954F4946000771D4207823
:100D2000400700F1B3802078800600F1FA80207837
:100D3000000600F131812078400600F17281A66B37
:100D4000002E00F09B83D9F80C0000F00C000C285A
:100D500040F03682D9F81810D9F82400012E4A46FE
:100D600000F07482E26B01F00303934240F06E8264
:100D7000236CC1F30322013B9A4240F06782626C0C
:100D800001F47041914240F061820146A26C6FF320
:100D90005F21013A914240F05982E26CC0F3462152
:100DA000013A914240F05282226DC0F30641013A6D
:100DB000914240F04B82616DC0F306600139884278
:100DC00040F044824946E06DD9F82810C1F3CC01C7
:100DD000814200F05383D9F8180020F01000C9F8C0
:100DE0001800FFF707FC0546FFF704FCA842FBD0FC
:100DF000E06DC000C9F82800D9F8180040F01000D4
:100E00003AE3D1F8840010F0040803D100F097FB16
:100E100002900298564EB859C0070ED100F0A7FBB9
:100E20000546B859C00708D1FFF7E4FB401B02286C
:100E300084BF0320BDE8FE83F3E7D9F8E0106069C2
:100E40004B46002800F09680A06901F08052904245
:100E500000F03C8201F04062B2F1006F00F0F681D8
:100E6000490140F12C82D3F8E00020F0A05000F0BE
:100E700094FB0546D9F8E000000140F11E82FFF71F
:100E8000B9FB411B03200529F4D9ECE6D1F8840015
:100E900010F0040803D100F052FB01900198344E89
:100EA000B859C0070BD100F062FB0546B859C0071E
:100EB00005D1FFF79FFB00F03EFBF7D9D3E6A06812
:100EC0004A46C10740F09080D9F8E010002821F090
:100ED0000101C9F8E010D9F8E01021F00401C9F8C7
:100EE000E01040F08F80FFF785FB054641F2883621
:100EF000D9F8E000800740F1D381FFF77BFB00F0D9
:100F000057FBF5D9AFE6A96841F40001A96000F0EC
:100F100039FBC0F09F80216AEA6822F01F0211436A
:100F20008FE13868E16A002900F0D58040F48050F4
:100F300000F01AFB0546386880043FF5F8AEFFF76D
:100F400059FB00F0F8FAF6D98DE620F0010000F028
:100F500021FB0546306840077FF54BAEFFF74AFBA3
:100F600000F0E9FAF6D97EE6100C0246000C0246C3
:100F700028FCFFFF21F0A05000F00FFB0546D9F838
:100F8000E0004946000140F1B481FFF733FB411B0B
:100F900003200529F3D966E63868216B002900F0A3
:100FA000008140F4804000F0DFFA05463868000414
:100FB0003FF5C1AEFFF71EFB00F0BDFAF6D952E6D1
:100FC000B06840F40000B060606AB16821F0704120
:100FD0000143B0F1404FB160C0F08C80206AF168ED
:100FE00021F01F01084359E1D9F8E010400705D569
:100FF00041F00400C2F8E000D2F8E01041F0010036
:10100000C2F8E000FFF7F6FA054641F28836D9F853
:10101000E000800730D4FFF7EDFA00F0C9FAF6D906
:1010200021E6606B002800F0F680B86840F400000C
:10103000B860D4E90901BA6822F070621143B0F1D6
:10104000404FB960C0F00581206AF96821F01F01A6
:101050000843E8E1B0F1FF3F40F3ED80216AEA6820
:10106000B0F1804F39BF22F4782242EAC13122F434
:10107000F84242EA8121E4E0D9F8E000A1684A465A
:10108000090600F1B98020F0800041F28836C2F8EC
:10109000E00000F064FA40F10981FFF7ABFA00F0DC
:1010A00087FAF6D9DFE5B0F1FF3F40F3E480216A2B
:1010B000EA68B0F1804F39BF22F4782040EAC130AD
:1010C00022F4F84040EA8120D9E000F077FA0028C5
:1010D00040F0BC80DFE520F4805000F045FA054682
:1010E000386880047FF523AEFFF784FA00F023FA16
:1010F000F6D9B8E5B0F1FF3F40F3CC80216AF26841
:10110000B0F1804F39BF22F4782040EAC13022F498
:10111000F84040EA8120C1E020F4807000F03AFA03
:101120000546306840057FF5F5ADFFF763FA00F03E
:1011300002FAF6D997E5306840F4802030603068D4
:1011400040F480103060306840F480303060FFF749
:1011500051FA0546306880033FF5B0ADFFF74AFA13
:10116000411B03206429F5D97DE53168002821F46D
:1011700080313160316821F480213160316821F49F
:1011800080113160E3D1FFF735FA054630688003FE
:101190007FF594ADFFF72EFA411B03206429F5D9A2
:1011A00061E520F4804000F0DFF90546386800046E
:1011B0007FF5C1ADFFF71EFA00F0BDF9F6D952E593
:1011C000386820F0807000F0CFF90546022E09D172
:1011D0003868800140F19480FFF70CFA00F0ABF919
:1011E000F6D940E53868800140F11481FFF702FA32
:1011F00000F0A1F9F6D936E540F0800041F28836DA
:10120000C2F8E00000F0ABF950D4FFF7F3F900F0BA
:10121000CFF9F7D927E5386820F0100000F0A4F9DD
:101220000546386880067FF58AADFFF7E3F900F0E0
:1012300082F9F6D917E5216AEA6822F4787242EA5F
:101240004111E960E7B900F0B9F9C8B10120BDE882
:10125000FE83B0F1FF3F40F3E280216AFA68B0F10B
:10126000804F39BF22F4782040EAC13022F4F840A0
:1012700040EA8120D7E0206AE96800F06BF9E86075
:10128000FFF71AFC7F480068FFF7EAF900287FF4AF
:10129000EAACAEE4206AF16800F05CF9F060A8E422
:1012A000D9F8E0004946000600F1CF80B8F1000F00
:1012B0007FF439AD00F075F935E54B46A069D3F8F8
:1012C000E01021F080510843C3F8E000D3F8E000BB
:1012D00040F0806000F061F90546D9F8E000494629
:1012E000000106D4FFF786F9411B03200529F4D934
:1012F000B9E4B8F1000F7FF412AD00F052F90EE539
:10130000D9F8840010F0040C0CD1D9F884104A46A6
:1013100041F00401C9F88410D9F8841001F00401E7
:1013200000910099594804F13C066FF0FF024FF616
:10133000037157F800E03B58804623F480233B506C
:1013400068CEA06C02EB0522D9F8185001386FF373
:101350005F2025EA010119434B46314311434C4AB2
:10136000C9F81810D9F8241011404FF47E420844EF
:10137000E16C02EB41214FF4FE0289B20844216D79
:1013800002EB01414FF0FE4201F4FE010844616DA1
:1013900002EB016101F0FE410844C9F82400D9F8CC
:1013A000180020F01000C9F81800E06DC000C9F85E
:1013B0002800D9F8180040F01000C9F81800D9F832
:1013C0001800A16D20F00C000843C9F818005FEA6E
:1013D0004E3005D557F8080040F4802047F8080043
:1013E000BCF1000F05D1D3F8840020F00400C3F84D
:1013F0008400386840F0807000F0B6F80446386821
:10140000800135D4FFF7F6F8011B03200229F6D935
:10141000FFF729BCD9F818001B4908402CE0206AC6
:10142000F96800F097F8F860386840F0100000F0B4
:101430009BF80546386880063FF581ACFFF7DAF87F
:1014400000F079F8F6D9FFF70EBCD1F8E00041F2D0
:10145000883620F08000C1F8E00000F080F87FF5C9
:1014600025AFFFF7C7F800F0A3F8F6D9FFF7FBBBED
:10147000D9F8180040F48020C9F818000020BDE811
:10148000FE8300BF04000020FCFFF8FF0CFCFFFF00
:1014900000008080042821D8DFE800F0030D102030
:1014A0001B002148016821F0040101601F48016808
:1014B00021F4400111E01C48012201E01A480222F7
:1014C000016821F0040101601848016862F3975136
:1014D00003E01548016841F004010160704700BF56
:1014E000411E0020B0EB116F1CBF012070470E4A57
:1014F00051609060116841F003011160704700BFB6
:1015000009480068400744BF042070470748006846
:1015100000F44001A1F58000B0FA80F04009B1F577
:10152000000F08BF0220704710E000E0E00C024608
:10153000FEE7FEE7FEE7411B032002297047D1F8D2
:10154000840040F00400C1F88400D1F8840000F069
:101550000400704721F4787141EA40107047D9F8CF
:10156000E0004946000570473860FFF743B8B859B6
:1015700040F00100B851FFF73DB8016841F00101AA
:1015800001607047A96821F070410143B0F1404FFC
:10159000A96070473060FFF72DB8C3F8E000FFF78F
:1015A00029B8D1F8840020F00400C1F88400704705
:1015B000411B0320B142704770470000BCB5274D66
:1015C0000446286840070FD4286840F004002860CB
:1015D000286800F0040001900198FFF713F92968CA
:1015E00021F00401296001E0FFF70CF940F480319B
:1015F000B1F5403F11D10021B4F1805F38BF012126
:101600001748026822F00F020A440260006800F0E6
:101610000F00401A18BF0120BCBD0021B1EB147FA0
:1016200006D1B0F5803F1CBF0120BCBD0321E7E718
:10163000B4F1005F07D900210028E1D1B4F1405F87
:1016400098BF0121DCE7B4F1805F05D10221B0F53C
:10165000803F08BF0121D3E70121D1E7940C024666
:10166000002002407047FEF7C9BFB0B59EB006A883
:1016700030210830FEF752FE4FF44030FFF778F883
:1016800008B172B6FEE702204FF480310024032532
:101690000C22079101211490CDE919000A2017941A
:1016A00015951D940691CDE91B121890169106A868
:1016B000FFF78EFA08B172B6FEE71F200421CDE9CC
:1016C0000154CDE90344059400906846FFF7A2F861
:1016D00008B172B6FEE71EB0B0BD000010B50E48EE
:1016E00001220F4CD0F8801041F47001C0F8801036
:1016F0000A490A600022CA610A624A620B682340F2
:101700000B608A620B6823F480230B600A654FF03C
:101710000061016010BD00BF08ED00E0000C024652
:10172000FFFFF6EAFEE7000086B0FEF771FFFFF765
:1017300061F8FFF759F8FFF798FF00251748184C94
:1017400000224FF400660595016841F00401016034
:10175000016801F0040100910099016841F08001E5
:101760000160016801F0800100910099016841F079
:10177000400101604FF40061006800F040000090FB
:1017800000982046FEF730FF0120CDE90355CDE952
:10179000016001A92046FEF727FEFEE78C0C0246F9
:1017A00000180242F1EE100A4FF6FF71C0F2C0318C
:1017B00020EA010040F04070E1EE100A704700009E
:1017C00000000000000001020304060708090000F1
:1017D000000002420100000000000242030000007D
:1017E0000000024206000000000402420100000066
:1017F000000402420A000000000802420200000049
:10180000000C02420D000000000C02420200000029
:10181000000802420A00000000040242000000002A
:10182000000802420C000000000402420300000015
:101830000004024204000000001002420000000008
:1018400000100242020000000010024203000000EB
:10185000006CDC0200366E010024F400001BB700AF
:1018600000093D0080841E00504B140040420F00D0
:1018700000E02E000070170000A00F0000B80B0061
:10188000801A0600400D030088070200A0860100B0
:10189000B0180008000000201000000074020008CA
:1018A000C018000810000020680600009002000820
:1018B000010000001000000000093D0000000000D1
:0400000508000239B4
:00000001FF
